:020000040800F2
:100000002822002021020008871B0008C9190008C7
:10001000851B00086B040008D122000800000000C6
:10002000000000000000000000000000890100083E
:100030008504000800000000CD010008951E00089E
:100040003B0200083B0200083B0200083B0200089C
:100050003B0200083B0200083B0200083B0200088C
:100060003B0200083B0200083B0200083B0200087C
:100070003B0200083B0200086D04000879040008F8
:100080003B0200083B0200083B0200083B0200085C
:100090003B0200083B0200083B0200083B0200084C
:1000A0003B020008091F00083B0200083B02000851
:1000B0003B0200083B0200083B0200083B0200082C
:1000C0003B0200083B0200083B0200083B0200081C
:1000D0003B020008C52200083B0200083B02000862
:1000E0003B0200083B0200083B02000800F002F857
:1000F00000F03AF80AA090E8000C82448344AAF188
:100100000107DA4501D100F02FF8AFF2090EBAE885
:100110000F0013F0010F18BFFB1A43F0010318473B
:100120000444000024440000103A24BF78C878C179
:10013000FAD8520724BF30C830C144BF04680C60ED
:10014000704700000023002400250026103A28BF35
:1001500078C1FBD8520728BF30C148BF0B60704739
:100160001FB51FBD10B510BD00F045F91146FFF7D2
:10017000F7FF02F0E3F800F063F903B4FFF7F2FFD2
:1001800003BC00F06BF90000224B19680868B0E866
:10019000F00F80F30988BFF36F8F4FF0000080F3FA
:1001A00011884EF00D0E70470000000006480068F0
:1001B000006880F3088862B661B6BFF34F8FBFF363
:1001C0006F8F00DF00BF00BF08ED00E0EFF3098094
:1001D000BFF36F8F0F4B1A6820E9F00F106008B55E
:1001E0004FF0500080F31188BFF34F8FBFF36F8F34
:1001F00003F036F94FF0000080F31188BDE80840A5
:1002000019680868B0E8F00F80F30988BFF36F8FB2
:10021000704700BF30000020EFF3058070470000FA
:100220000948804709480047FEE7FEE7FEE7FEE78A
:10023000FEE7FEE7FEE7FEE7FEE7FEE704480549C6
:10024000054A064B70470000051F0008ED00000836
:10025000281C002028220020281E0020281E002004
:10026000032A40F2308010F0030C00F0158011F8E2
:10027000013BBCF1020F624498BF11F801CB00F8BA
:10028000013B38BF11F8013BA2F1040298BF00F80E
:1002900001CB38BF00F8013B11F0030300F0578099
:1002A000083AC0F0088051F8043B083A51F804CBF2
:1002B000A0E80810F5E7121D5CBF51F8043B40F8B8
:1002C000043BAFF30080D20724BF11F8013B11F8C3
:1002D00001CB48BF11F8012B24BF00F8013B00F807
:1002E00001CB48BF00F8012B704702F0FF0343EA3F
:1002F000032242EA024200F05EB84FF0000200B56D
:10030000134694469646203922BFA0E80C50A0E838
:100310000C50B1F12001BFF4F7AF090728BFA0E8E6
:100320000C5048BF0CC05DF804EB890028BF40F8B2
:10033000042B08BF704748BF20F8022B11F0804FF4
:1003400018BF00F8012B704770477047704710B511
:10035000203AC0F00B80B1E81850203AA0E81850BD
:10036000B1E81850A0E81850BFF4F5AF5FEA027C7E
:1003700024BFB1E81850A0E8185044BF18C918C0ED
:10038000BDE810405FEA827C24BF51F8043B40F88E
:10039000043B08BF7047D20728BF31F8023B48BF73
:1003A00011F8012B28BF20F8023B48BF00F8012BB1
:1003B00070474FF000020429C0F0128010F0030CC7
:1003C0003FF49DAFCCF1040CBCF1020F18BF00F854
:1003D000012BA8BF20F8022BA1EB0C01FFF78FBF68
:1003E0005FEAC17C24BF00F8012B00F8012B48BF55
:1003F00000F8012B7047754600F02CF8AE4605005A
:100400006946534620F00700854618B020B5FFF72F
:1004100015FFBDE820404FF000064FF000074FF0F9
:1004200000084FF0000B21F00701AC46ACE8C00912
:10043000ACE8C009ACE8C009ACE8C0098D4670471B
:1004400010B50446AFF300802046BDE81040FFF72A
:1004500094BE000000487047C41B002001491820CA
:10046000ABBEFEE7260002007047FEE7014800F041
:100470007BB8000064020020014800F075B800005D
:1004800020020020704772B6FEE710B590F82110E8
:100490000022022905D00421816380F82020012058
:1004A00010BD01680B6823F00E030B6001680B6838
:1004B00023F001030B6090F84030C46B012101FA76
:1004C00003F3636080F8211080F82020104610BDEF
:1004D00010B590F821100024022903D00421816373
:1004E00001243DE001680A6822F00E020A600168FA
:1004F0000A6822F001020A601A4A0168914201D199
:10050000012121E0174A1432914201D110211BE050
:10051000144A2832914201D1891515E0114A3C3222
:10052000914201D189140FE00E4A5032914202D11A
:100530004FF4803108E00B4A6432914202D14FF40B
:10054000801101E04FF08071064A083A51600121A4
:1005500080F82110002180F82010416B01B18847FC
:10056000204610BD080002402DE9F05FC16B0C6809
:1005700001680B68D0F840C0042202FA0CF2494D21
:10058000DFF824A1494E4A4FDFF828B1DFF828E10F
:1005900022422CD05A072AD50A68920603D40A6848
:1005A00022F004020A600168A94201D1042219E084
:1005B000514501D1402215E0B14202D14FF4806291
:1005C00010E0B94202D14FF480420BE0594502D10C
:1005D0004FF4802206E0714502D14FF4800201E021
:1005E0004FF080622F4908394A60C16A3BE04FF002
:1005F000020808FA0CF818EA040F4FF000094FF04F
:10060000010235D05FEA837832D50B689B0605D4AA
:100610000B6823F00A030B6080F821200168A942CF
:1006200001D1022219E0514501D1202215E0B14249
:1006300002D14FF4007210E0B94202D14FF40052DF
:100640000BE0594502D14FF4003206E0714502D16A
:100650004FF4001201E04FF00072124908394A606D
:1006600080F82090816A00291AD0BDE8F05F084721
:10067000082505FA0CF5254212D01B0710D50B688A
:1006800023F00E030B6090F84010C36B02FA01F1E7
:100690005960826380F8212080F82090016BE2E7A6
:1006A000BDE8F09F080002401C00024030000240FC
:1006B00044000240580002406C00024030B528B3AC
:1006C00008C8134914221944B1FBF2F18900C1632F
:1006D00010498163022141771A6843F6F0718A4319
:1006E000D0E900142143D0E902452C432143046999
:1006F0002143446921438469214311431960002146
:100700004163012242770177084630BD012030BDA8
:10071000F8FFFDBF000002402DE9F84FDFF8B89167
:100720000024A9F1040B23460F2709F1040AABF1B9
:10073000040EC9E00125A5402A40AA427DD1674E9A
:10074000D1F804C0ACEB0608B44532D014DCBCF1DF
:10075000030F3AD009DCBCF1000F2AD0BCF1010F25
:100760001CD0BCF1020F31D11DE0BCF1110F17D02C
:10077000BCF1120F2AD119E0B8F5881F19D006DC98
:10078000B8F5803F15D0B8F5801F1FD111E0B8F53E
:10079000001F0ED0B8F5041F18D10AE0CB6815E091
:1007A000CB681B1D12E0CB6808330FE0CB680C331D
:1007B0000CE08B682BB1012B4FF0080303D045618F
:1007C00004E0042302E0056100E00023FF2A01D8D1
:1007D000064601E000F104064FEA840501D9A5F1BF
:1007E0002005D6F8008007FA05FC28EA0C0803FA71
:1007F00005F548EA0508C6F800804D68ED0062D5A9
:10080000374DAE6946F00106AE61AD6924F00306CE
:1008100005F001050095334D06EB050CDCF808509A
:10082000A607360F07FA06F825EA0805DFF8B880AC
:10083000404503D14FF0000817E044E0DFF8AC80FA
:10084000404502D14FF001080FE0DFF8A480404599
:1008500002D14FF0020808E0DFF89880404502D14D
:100860004FF0030801E04FF0040808FA06F848EAE0
:100870000508CCF808804D68D9F80060ED024D46B7
:1008800001D5164300E096432E604D68DAF800600B
:10089000AD02554601D5164300E096432E604D68E3
:1008A000DBF80060AD035D4601D5164300E09643DA
:1008B0002E604D68DEF80060ED03754601D51643E5
:1008C00000E096432E60641C0D682A46E5407FF4E4
:1008D00031AFBDE8F88F000008040140000011109E
:1008E000001002400000014000080140000C0140DF
:1008F00000100140001401400AB101617047090471
:10090000FBE70000014880687047000020000020DD
:1009100002488168027811448160704720000020FD
:10092000074810B5016841F010010160032000F094
:10093000A1F80F2000F006F800F04AF8002010BDE2
:100940000020024030B505461C4887B0816941F45B
:1009500000618161806906A900F40060009001A82F
:1009600000F030F900F05EF91549164AB0FBF1F1DC
:100970001548491E0260416040F2E7320021C0E99B
:1009800003218160816100F049FB040012D10E480F
:1009900000F072FB04000DD1192000F03DF8102D7D
:1009A00007D200222946192000F044F807480560C4
:1009B00000E0012407B0204630BD000000100240D6
:1009C00040420F00002C0140A8020020240000201B
:1009D0000F4808B5816941F001018161816901F029
:1009E00001010091C16941F08051C161C0690022DB
:1009F00000F0805000900F21901E00F01BF8054879
:100A0000416821F0E06141F00071416008BD0000E3
:100A10000010024000000140002809DB00F01F0226
:100A2000012191404009800000F1E020C0F8001150
:100A300070470000F0B40E4B1B680C46C3F3022352
:100A4000C3F10705042D00D90425191D072901D27A
:100A5000002300E0DB1E012606FA05F1491E2140B5
:100A600099409E40761E16403143F0BC01F031BCE7
:100A70000CED00E0064900F0070208684FF6FF039E
:100A8000184040EA0220034A104308607047000003
:100A90000CED00E00000FA052DE9F0470F460500D7
:100AA00061D0434E306800F00700B84209D2306888
:100AB00020F0070038433060306800F00700B8428B
:100AC00051D128683B4C810712D5400703D5606897
:100AD00040F4E06060602878000703D5606840F467
:100AE000605060606068A96820F0F00008436060B2
:100AF0002878C00728D06868012810D0216802280B
:100B000010D0890700292EDA616821F00301014322
:100B10006160FFF7F7FE804641F288390DE02168F9
:100B20008903EFE78901EDE7FFF7ECFEA0EB080191
:100B3000494502D90320BDE8F0876068696800F084
:100B40000C00B0EB810FEFD1306800F00700B84225
:100B50000BD9306820F0070038433060306800F06F
:100B60000700B84201D00120E5E72878400705D505
:100B70006068E96820F4E060084360602878000756
:100B800006D56068296920F4605040EAC1006060C1
:100B900000F058F86168084AC1F30311515CC8407D
:100BA0000649086006480068FFF7CCFE0020C2E74F
:100BB0000020024000100240F24400082C000020F7
:100BC000240000200F2202600C4A536803F0030344
:100BD0004360536803F0F0038360536803F4E063F9
:100BE000C36052684FF4E06303EAD2020261044832
:100BF000006800F007000860704700000010024025
:100C0000002002400448054900684968044AC1F3CD
:100C10000221515CC84070472C00002000100240A7
:100C2000024500080448054900684968044AC1F3C0
:100C3000C221515CC84070472C00002000100240C7
:100C4000024500080E4A51680E4801F00C03042BBF
:100C500011D0082B0FD10C48C1F38343C903C05CEA
:100C60000AD55168084AC1F34041921E515C054AB9
:100C70005043B0FBF1F0704704494843704700000F
:100C80000010024000127A00E244000800093D0012
:100C90002DE9F84F040070D02078C04DC00749D02E
:100CA0006868C0F38100012807D06868C0F381003C
:100CB000022809D16868C00306D52868800339D5A1
:100CC00060680028E7D035E06068B0F5803F0BD061
:100CD00010B1B0F5A02F11D0286820F48030286022
:100CE000286820F4802002E0286840F480302860E2
:100CF000606890B1FFF706FE06460AE0286840F4F7
:100D000080202860F0E700BFFFF7FCFD801B64280F
:100D100073D828688003F7D50CE0FFF7F3FD06468B
:100D200005E000BFFFF7EEFD801B6428F0D82868BF
:100D30008003F7D420789A4E80074FF001094FF0D6
:100D4000000839D5686810F00C0F07D06868C0F348
:100D50008100022809D16868C00306D4286880078A
:100D600014D52069012808D110E02069B0B1C6F877
:100D70000090FFF7C7FD074605E00AE1FFF7C2FD57
:100D8000C01B0228C4D828688007F7D52868616985
:100D900020F0F80040EAC10028600DE0C6F80080AD
:100DA000FFF7B0FD074604E0FFF7ACFDC01B0228CB
:100DB00023D828688007F7D4207800072CD57948F5
:100DC000A169D9B1C0F80090FFF79CFD074604E087
:100DD000FFF798FDC01B02280FD8686A8007F7D577
:100DE00071484FF4FA510068B0FBF1F0009000BF79
:100DF0000098411E0091FAD20EE080E0C0F8008019
:100E0000FFF780FD074604E0FFF77CFDC01B0228CA
:100E100075D8686A8007F7D42078400760D5E869FC
:100E20000027C00008D4E86940F08050E861E86914
:100E3000012700F0805000905C480168C90513D478
:100E40000168834641F480710160FFF75BFD8246D3
:100E500006E000BFFFF756FDA0EB0A0064284ED85D
:100E6000DBF80000C005F5D5E06801280AD008B11C
:100E7000052813D0286A20F001002862286A20F093
:100E8000040002E0286A40F001002862E06841F2B4
:100E9000883B98B1FFF736FD82460BE0286A40F0A8
:100EA00004002862EEE700BFFFF72CFDA0EB0A016B
:100EB00059455AD8286A8007F6D50CE0FFF722FD7D
:100EC000824605E0FFF71EFDA0EB0A0159454CD80C
:100ED000286A8007F6D41FB1E86920F08050E861E5
:100EE000E06988B36968C1F38101022944D002280E
:100EF000C6F8608004D0FFF705FD044638E034E012
:100F0000FFF700FD074604E0FFF7FCFCC01B0228CA
:100F10002BD828688001F7D4206AB0F5803F05D12E
:100F20006868A16820F4003008436860D4E90801CB
:100F30000843696821F4741108436860C6F860903A
:100F4000FFF7E0FC044606E025E000BFFFF7DAFC0F
:100F5000001B022809D828688001F7D51BE000BFD4
:100F6000FFF7D0FC001B022802D90320BDE8F88F50
:100F700028688001F4D40EE00128F7D06868226A5E
:100F800000F48031914204D1616A00F4701088420B
:100F900001D00120EAE70020E8E70000001002404D
:100FA00000004242800442422C00002000700040B9
:100FB0007047704770B590F83C20012A26D0012474
:100FC00080F83C40022280F83D2003685A689D6802
:100FD00022F070060A6832435A600D4B02689A424A
:100FE00008D0B2F1804F05D00A4B9A4202D00A4B8A
:100FF0009A4204D1496825F080031943916080F832
:101000003D40002180F83C10084670BD022070BDB4
:10101000002C0140000400400008004010B504000E
:1010200003D094F83D0010B107E0012010BD00206E
:1010300084F83C00204600F01EF8022084F83D00B1
:10104000211D206800F066FF012084F8460084F826
:101050003E0084F83F0084F8400084F8410084F8A2
:10106000420084F8430084F8440084F8450084F882
:101070003D00002010BD704790F83D10012901D0BF
:1010800001207047022180F83D100168CA6842F0D3
:101090000102CA6000680B49884208D0B0F1804F55
:1010A00005D00949884202D00849884204D18168A4
:1010B00001F00701062903D0016841F00101016038
:1010C00000207047002C0140000400400008004050
:1010D0002DE9F0410D46040003D094F83D0018B10D
:1010E00008E00120BDE8F081002084F83C002046A3
:1010F00000F040F8022084F83D002068816844F246
:10110000070291438160211D206800F003FF2268DF
:1011100090689169166A2B68AF69034340F2033007
:10112000814341EA0721A868EF6908434FF6FC4173
:101130008843E96840EA0720014328692F6A0001D3
:1011400040EA0730084369686D6926F0220646EADE
:101150000515294393602268906154F8460B01629B
:10116000012004F81F09E0752076E0762077A0754D
:101170000020B7E700B585B00021009101910291F0
:101180000391026818491948B2F1804F19D0184BE1
:101190009A4214D1CA6942F00202CA61CA6902F0D5
:1011A000020204928A6942F004028A61896901F0AC
:1011B00004010491C02100916946FFF7ADFA05B022
:1011C00000BDCA6942F00102CA61CA6902F00102A7
:1011D00004928A6942F004028A61896901F004017B
:1011E00004910321E7E700000010024000080140DD
:1011F0000004004070B590F83E60044690F83F50FF
:1012000090F8423090F84320022021B104290ED0FA
:10121000012E1BD114E0012E18D1012B16D184F818
:101220003E0084F8420001220021206820E0012DC8
:101230000CD1012A0AD184F83F0084F8430014E05D
:10124000012D03D1012B01D1012A01D0012070BD54
:1012500084F83E0084F83F0084F8420084F843009C
:1012600001220021206800F091FE01220421206863
:1012700000F08CFE2068016841F00101016000204F
:1012800070BD70472DE9F04104460068C6680569E5
:101290004FF00007A90713D5B10711D5F91E016159
:1012A00001202077206880698007204602D0FFF760
:1012B000E8FF04E000F0A4F8204600F049F92777A1
:1012C000680716D5700714D521686FF0040008610F
:1012D000022020772068806910F4407F204602D0E9
:1012E000FFF7CFFF04E000F08BF8204600F030F964
:1012F0002777280715D5300713D521686FF0080028
:101300000861042020772068C0698007204602D049
:10131000FFF7B7FF04E000F073F8204600F018F97B
:101320002777E80616D5F00614D521686FF010006F
:101330000861082020772068C06910F4407F2046AB
:1013400002D0FFF79EFF04E000F05AF8204600F0BC
:10135000FFF82777E80708D0F00706D021686FF07C
:1013600001000861204600F043F9280608D5300640
:1013700006D521686FF0800008612046FFF718FE4F
:10138000680608D5700606D521686FF04000086130
:10139000204600F037F9A8060AD5B00608D521681E
:1013A0006FF0200008612046BDE8F041FFF701BE64
:1013B000BDE8F08100B585B0002100910191029156
:1013C000039100680B49884211D10B48816941F0B3
:1013D000080181618069694600F008000490C0201E
:1013E00000900220019003900448FFF795F905B0A2
:1013F00000BD00000008004000100240000C014049
:10140000704770B5044690F83C0000260D46012850
:101410000FD0012084F83C006AB1042A1DD0082AAC
:101420002FD00C2A3FD00126002084F83C00304603
:1014300070BD022070BD206800F0B6FD2068816993
:1014400041F0080181612068816921F00401816116
:10145000206881692A69114311E0206800F0CCFD01
:101460002068816941F4006181612068816921F40B
:1014700080618161206881692A6941EA0221816174
:10148000D2E7206800F0E4FD2068C16941F008015E
:10149000C1612068C16921F00401C1612068C1698E
:1014A0002A69114311E0206800F0FEFD2068C1693F
:1014B00041F40061C1612068C16921F48061C161AA
:1014C0002068C1692A6941EA0221C161ACE710B50F
:1014D000040003D094F83D0010B107E0012010BDD6
:1014E000002084F83C00204600F01EF8022084F81A
:1014F0003D00211D206800F00DFD012084F846000C
:1015000084F83E0084F83F0084F8400084F84100ED
:1015100084F8420084F8430084F8440084F84500CD
:1015200084F83D00002010BD08B5006806498842D7
:1015300008D10648C16941F00401C161C06900F0E9
:101540000400009008BD00000008004000100240A8
:101550007047000010B50446022249B104290ED09C
:10156000082913D094F84100012816D0012010BD9D
:1015700094F83E000128F9D184F83E200FE094F859
:101580003F000128F2D184F83F2008E094F84000A1
:101590000128EBD184F8402001E084F841200122A9
:1015A000206800F0F3FC0F492068884203D1426CA8
:1015B00042F4004242642068884208D0B0F1804F73
:1015C00005D00949884202D00849884204D181687F
:1015D00001F00701062903D0016841F00101016013
:1015E000002010BD002C0140000400400008004015
:1015F00000680349884201D1FFF78AB970470000AB
:10160000002C01407047704770470000F8B5016832
:1016100004460868CA684B6910F00F0F4FF00005C8
:1016200059D003F0010602F49077374365D0C10723
:1016300005D0D10503D5616C41F00101616441071A
:1016400005D5D90703D0616C41F0020161648107BF
:1016500005D5D90703D0616C41F00401616401072D
:1016600007D502F02001314303D0616C41F008013D
:101670006164616C00293AD0800604D5900602D5D9
:10168000204600F062FD20684069616CC0F3801064
:10169000090700D460B3204600F030FD206840699F
:1016A000400621D52068143050E8001F21F0400189
:1016B00040E80012002AF5D1E06BA8B16D49416302
:1016C000E06BFEF705FF002811D0E06B416B01B025
:1016D000BDE8F040084783060FD593060DD5204698
:1016E000BDE8F84000F031BD2046FFF78DFFF8BDA2
:1016F0002046FFF789FF6564F8BD266B2023012E85
:101700007CD1C6067AD5D60678D508684868009098
:1017100048694FF00206400640D5E16B0868406812
:101720000004000CE8D0A28D8242E5D9E0858869EA
:1017300020282DD020680C3050E8001F21F4807143
:1017400040E80012002AF5D12068143050E8001F4C
:1017500021F0010140E80012002AF5D12068143080
:1017600050E8001F21F0400140E80012002AF5D1A6
:1017700084F84230256320680C3050E8001F21F0C7
:10178000100140E80012002AF5D1E06BFEF77DFE63
:101790006663A08DE18D401A81B22AE0A08DE18DB3
:1017A000401A81B2E08D0028A6D00029A4D022687A
:1017B0000C3252E8000F20F4907042E80007002F2E
:1017C000F5D12068143050E8002F22F0010240E8E3
:1017D0000027002FF5D184F84230256320680C30B3
:1017E00050E8002F22F0100240E80023002BF5D132
:1017F00066632046FFF707FFF8BDFFE705062BD518
:10180000150629D594F841002128F5D1A068B0F536
:10181000805F01D12069B0B1206A411C216221683A
:1018200000784860E08C401E0004000CE084E3D1A6
:101830002068C16821F08001C1602068C16841F062
:101840004001C160D8E7206A0088C0F30800486002
:10185000206A801C2062E5E74006CDD55006CBD536
:10186000CA68204622F04002CA6084F8413000F085
:10187000AAF8C1E7ED20000870B5040004D094F880
:101880004100002510B106E0012070BD84F84050F1
:10189000204600F023F8242084F841002068C16825
:1018A00021F40051C160204600F0B0FC20680169BD
:1018B00021F4904101612068416921F02A014161D0
:1018C0002068C16841F40051C1606564202084F83B
:1018D000410084F842006563002070BD2DE9F041AD
:1018E00086B0002406460094019402940394006894
:1018F0002E49884257D12E48816941F48041816147
:10190000816901F480410491816941F004018161A0
:101910008069284D00F0040004904FF4007000909E
:10192000022001900320039069462846FEF7F4FE4A
:101930002815CDE90004694628460294FEF7ECFE1E
:101940001E4D1D484FF08008C5E90004C5E9024856
:101950002C614FF440576C61C5E906472846FEF7F5
:10196000ADFE08B1FEF78FFDF5636E621248144DAF
:10197000143801C51020A5E81101202045F81049B0
:10198000EF61C5E905400E48FEF798FE08B1FEF785
:101990007AFDB5630022052125206E62FFF74AF823
:1019A0002520FFF739F806B0BDE8F0810038014086
:1019B00000100240000801405800024020020020B0
:1019C0006402002070477047FEE7000030B51748FA
:1019D00085B0816941F020018161816901F02001B8
:1019E0000491816941F004018161816901F0040180
:1019F0000491816941F00801816180694FF470446C
:101A000000F008000490002002900120CDE9004081
:101A10000220074D039069462846FEF77DFE00220E
:101A200021462846FEF768FF05B030BD0010024091
:101A3000000C014010B58CB024216846FEF75DFC17
:101A40000024154809944FF080410A94C0E900141D
:101A50004FF6FF71C0E90241046184610120CDE9C4
:101A60000004CDE902040494CDE9054007946946D9
:101A700009480894FFF72CFB08B172B6FEE70994F9
:101A800009A905480A94FFF795FA002801D072B613
:101A9000FEE70CB010BD0000B000002010B58CB007
:101AA00024216846FEF729FC0024154809941349AF
:101AB0000A94C0E900144FF6FF71C0E902410461C5
:101AC00084610120CDE90004CDE902040494CDE94C
:101AD0000540079469460A480894FFF7F9FA08B1E7
:101AE00072B6FEE7099409A905480A94FFF762FA5D
:101AF000002801D072B6FEE70CB010BD0004004013
:101B0000F800002010B58AB0002407941C21684614
:101B10000894FEF7F2FB1A481849C0E900144FF682
:101B2000FF71C0E9024104618461FFF7D0FC08B194
:101B300072B6FEE7079407A911480894FFF73AFA2E
:101B400008B172B6FEE76020CDE9000402940022DD
:101B500069460B480494FFF754FC08B172B6FEE7DF
:101B6000042269460648FFF74CFC08B172B6FEE74E
:101B70000348FFF71FFC0AB010BD0000000800403A
:101B800040010020FEE7FEE72DE9F047040011D0F8
:101B9000206C60648146E06B2064C4E906218046C5
:101BA000104602F093FB0546E063207828B1012837
:101BB0003BD038E00020BDE8F0872946606802F09D
:101BC0007DFA60622946A06802F078FAA16A02F004
:101BD00099F90646A062606BA063206B6063414682
:101BE000284602F073FB01462063E06802F066FAC3
:101BF000E0623046616902F02DFB606908D380F035
:101C00000040A16A02F026FB03D2606980F0004028
:101C1000A062D4E9090102F075F9E16A31E02069B6
:101C200080F000402062206AC5E74146284602F065
:101C30004DFB616802F042FA074660622946A068DF
:101C400002F03CFA0646A062606BA063206B606302
:101C50000121404602F0E1FB294602F02CFB4946F7
:101C600002F050F901462063E06802F027FA0546C9
:101C7000E0623146384602F045F9294602F042F961
:101C8000216A02F03FF92062216902F0E3FA20693B
:101C9000C8D380F00040216A02F0DCFAC3D2BEE76C
:101CA00000280CD0002141640164C1638163416359
:101CB0000163C1628162416201628161C1617047F9
:101CC00010B50028029C16D0002A14D001701168AB
:101CD00041605168816000F10C0C91688CE81A0039
:101CE00000218163416301630162C16281624162DB
:101CF00041640164C16310BD1CB54EF66026002529
:101D00002C46009601F0F2F8DFF87491DFF8748148
:101D100009F1480A41F2883BD9F80000416ADAF833
:101D20000000426AB8F80030B8F80270CB1AD8F850
:101D300004C01BB2D71B9C447F42C8F804C0D8F82B
:101D400008C03FB2BC44C8F808C0A8F80010A8F802
:101D50000220052D2BD2DFE805F0032B375F6C0046
:101D6000184602F05FF90190384602F05BF901462F
:101D70004548019AFFF708FF02F038F98119B1F5DB
:101D8000803F02DB4FF6FF7102E0002900DA0021FC
:101D9000009800F0AFFA0A345C456DD301F0B8F852
:101DA0003948FFF77DFFC82000F05CFB012563E0A8
:101DB0004CF25031002001F0CFF801F097F8C82024
:101DC00000F050FB022532E0184602F02BF901909A
:101DD000384602F027F901462B48019AFFF7D4FE56
:101DE00002F004F98119B1F5803F02DB4FF6FF7173
:101DF00002E0002900DA0021009800F07BFA0A34A2
:101E00005C4539D301F084F81F48FFF749FFC8202B
:101E100000F028FB03252FE04CF25031012001F0A7
:101E20009BF801F063F8C82000F01CFB0425002497
:101E300022E0184602F0F6F80190384602F0F2F877
:101E400001461148019AFFF79FFE02F0CFF8811971
:101E5000B1F5803F02DB4FF6FF7102E0002900DAA6
:101E60000021009800F046FA0A345C4504D301F0E2
:101E70004FF80548FFF714FF0A2000F0F3FA4BE78C
:101E8000B000002000000020D0010020012000F060
:101E9000E9FAFBE710B54FF0E020006901F068FEB9
:101EA000012803D0BDE8104001F06ABB10BD30B579
:101EB0008FB028216846FEF720FA14210AA8FEF701
:101EC0001CFA0121080400240491CDE90010CDE999
:101ED00008040294022507956846FEF7D9FE08B16A
:101EE00072B6FEE70F200A90CDE90B540D94002145
:101EF0000AA80E94FEF7D0FD002801D072B6FEE7C6
:101F00000FB030BD704700000148FFF7BBB90000BB
:101F1000A8020020F0B50268194B1A4C1A4D4FF078
:101F20008047984205D0B84203D0A04201D0A842D1
:101F300003D122F070064A683243984205D0B84275
:101F400003D0A04201D0A84203D122F44074CA6851
:101F500022434C6922F08002224302608A68C262F6
:101F60000A688262984201D10969016301214161D5
:101F70000169C90703D0016921F001010161F0BDC8
:101F8000002C0140000400400008004010B501F0A2
:101F90001F030121046A99408C430462016A9A403C
:101FA0001143016210BD000030B5036A026A22F0DD
:101FB000010202624268846924F073050C682C43B4
:101FC00023F002058B682B430A4DA8420BD123F066
:101FD0000805CB6822F440722B434D6923F00403BB
:101FE00015438A692A4342608461496841630362F8
:101FF00030BD0000002C014030B5026A036A23F0B6
:1020000010030362436884690D6824F4E64444EADB
:1020100005248D6822F0200242EA05120B4DA842E9
:102020000ED1CD6822F0800242EA05124D6923F4F8
:10203000406343EA85038D6922F0400243EA850349
:102040004360846149688163026230BD002C0140B5
:1020500030B5036A026A22F4807202624268C4697F
:1020600023F4007324F073050C682C438D6843EA55
:1020700005230C4DA8420ED1CD6823F4006343EA3A
:1020800005234D6922F4405242EA05128D6923F47A
:10209000806342EA05124260C4614968C163036219
:1020A00030BD0000002C014030B5046A026A22F401
:1020B000805202624268C3690D6823F4E64343EA32
:1020C00005238D6824F4005444EA0534064DA842E3
:1020D00004D14D6922F4804242EA85124260C36114
:1020E00049680164046230BD002C014010B5406AAB
:1020F0000021C185C184FFF787FA10BD01680C314A
:1021000051E8002F22F4907241E80023002BF5D112
:102110000168143151E8002F22F0010241E8002348
:10212000002BF5D1016B012909D101680C3151E86F
:10213000002F22F0100241E80023002BF5D12021CE
:1021400080F8421000210163704708B590F84210F2
:10215000222901D0022008BD82684FF480539A42A0
:1021600001D1016921B1816A9A421BD04AB10AE0CA
:102170000268816A5268C2F308020A80816A891C77
:1021800008E0026972B10268526802F07F020A70C8
:10219000816A491C8162C18D491E0904090CC185EF
:1021A00003D01BE002685268F1E70168CA6822F0B8
:1021B0002002CA600168CA6822F48072CA6001689D
:1021C0004A6922F001024A61202180F84210002170
:1021D0004163026B012A03D0FFF7F4FB002008BD26
:1021E000016301680C3151E8002F22F0100241E830
:1021F0000023002BF5D101680A68D20602D50A68CF
:1022000049680091818DFFF7FEF9E7E770B5044654
:1022100000680169E26821F44051114301612169BC
:10222000A0680843616908432168CA6841F20C63E9
:102230009A430243CA6020684169A26921F440714F
:10224000114341611E492068884202D1FEF7EAFC31
:1022500001E0FEF7D7FC00EBC00101EB0012606863
:1022600064218000B2FBF0F3B3FBF1F36FF01806CA
:102270007343B2FBF0F5B2FBF0F605EB83053223B6
:1022800003EB0515B5FBF1F5B6FBF1F605F0F0052E
:1022900005EB0615B2FBF0F6B2FBF0F0B0FBF1F087
:1022A0006FF01802504306EB800003EB0010B0FB08
:1022B000F1F0216800F00F002844886070BD000034
:1022C000003801400148FFF7A1B900008801002053
:1022D000FEE70907090E002804DB00F1E02080F882
:1022E0000014704700F00F0000F1E02080F8141D8A
:1022F0007047000070B50F4E0C46054600224FF4A3
:1023000080513046FEF7F8FA012251033046FEF7BD
:10231000F3FA00224FF480413046FEF7EDFA012235
:10232000D1033046FEF7E8FA034801684D630068C0
:10233000846370BD000C01404001002008B5FEF729
:10234000EFFAFFF7B4FDFFF741FB3C48416941F06C
:10235000010141614069002200F001000090052167
:102360000E20FEF767FB0E20FEF756FB002205212C
:102370000F20FEF75FFB0F20FEF74EFBFFF75AFB27
:10238000FFF78CFBFFF7BEFB2E482D490C220160A6
:102390004FF4E131416000218160C160C0E9041265
:1023A0008161C161FFF768FA08B172B6FEE726489D
:1023B00000902448254B264A00214830FFF780FC36
:1023C000204800214838FFF7C5F81E480421483846
:1023D000FFF7C0F81F4C012211032046FEF78CFACC
:1023E000002261142046FEF787FA0122910320465D
:1023F000FEF782FA00224FF400412046FEF77CFAF5
:1024000010483C21D838FEF7F5FE0E483C219038A4
:10241000FEF7F0FE104A0021104800F063F80C4C63
:10242000143C206100F02EF80B4A0021243A0C489D
:1024300000F058F8E06000F039F8FEE700100240C4
:1024400000380140880100200000FA4500A08C46B9
:1024500014000020000C0140BC440008F91C0008D6
:102460008D1E000810B50146EFF3058010B16FF026
:10247000050404E0002411B1084600F033FF2046B3
:1024800010BD0000EFF30580002802D06FF00500BA
:1024900070470548016811B14FF0FF3070470121C6
:1024A00001600020704700008000002010B5EFF3AD
:1024B0000580002802D06FF0050010BD07480168B4
:1024C000012902D04FF0FF3010BD054A00211170E4
:1024D0000221016000F074FF002010BD8000002088
:1024E0001FED00E02DE9F04385B00B464FF00007EB
:1024F0000497EFF3058100294ED100284CD08024A9
:102500004FF0180C8946491E52B3166806B1B14601
:10251000956905B1AC46ACF10105382D03D21579AA
:1025200015F0010F03D005B00020BDE8F083556918
:1025300005B1AC08D2F80880B8F1000F07D0D66812
:102540005C2E04D3166916B10DB1012109E0B8F172
:10255000000F06D1D56825B9156915B9002100E02D
:102560000021012901D061B116E091681269019240
:102570000291CDF800C02246494601F0C9FA049004
:102580000AE004A90191A2B2CDF800C0494601F0C9
:1025900089FA012800D00497049805B0BDE8F083BB
:1025A0002DE9F04104460F46134EF5683068001DD2
:1025B00000F05AFDB4F1FF3F07D137B13068BDE8F4
:1025C000F041011D0D4800F0A2BD2C44306844606C
:1025D000AC4206D23068011DB06BBDE8F04100F09E
:1025E0007BBD3068011D706B00F076FDB06A8442DF
:1025F00000D2B462BDE8F08130000020E007002086
:1026000070B5044600F090FD1C4DA868401CA86001
:10261000286810B1686938B10CE02C60A8680128FE
:1026200008D100F093F905E02868E16AC06A8842A1
:1026300000D82C60686A401C68626064E06A29699E
:10264000884200D928610E4900EB800001EB800030
:10265000211D00F05CFD00F087FD686900280CD0AA
:102660002868E16AC06A884207D206494FF0805064
:102670000860BFF34F8FBFF36F8F70BD3000002035
:102680003003002004ED00E038B500F04DFD0F4CA4
:102690002068B8B90E4800F011FD0E4800F00EFD9C
:1026A0000B48E0601430206100200B4B009003F1D8
:1026B000500210210A2000F079FF206010B107A11C
:1026C00000F0D6FDBDE8384000F04EBD6C000020A3
:1026D000E4080020F8080020F4070020546D72512F
:1026E0000000000070B50D4C6068002815D00C4E3D
:1026F00000F01AFDF068C568281D00F0B5FCA06860
:10270000401EA0606068401E606000F02DFD2846FD
:1027100000F051F860680028EAD170BD3000002058
:10272000CC0700200B46026C002A0CD0C168114473
:10273000C160D0F808C0614501D30168C160C168BB
:102740001846FDF78DBD70472DE9F0410446164649
:102750000027A56B226C002A10D0C6B1E068FDF7F7
:102760007FFDE168206C091AE1602268914202D283
:10277000A168081AE060022E16D017E02068A8B9F8
:10278000A06801F06FFA07460020A0600EE06068C4
:10279000FDF766FD216C606808446060A1688842AE
:1027A00004D32068606001E005B16D1E681CA06361
:1027B0003846BDE8F08110B5044694F85910002958
:1027C0000BD0012911D0022914D0502080F3118898
:1027D000BFF34F8FBFF36F8FFEE7206B00F0DAFC83
:1027E0002046BDE8104000F0D5BC2046BDE81040B2
:1027F00000F0D0BC10BD00000749CA68116800296C
:1028000004D00021016019B1002070470121F9E7CF
:10281000D0680068704700006C0000204FF44061F1
:10282000104810F0070F06D0C01D20F007000D491A
:10283000411AC1F540610C4A106000235360014405
:10284000083921F00701183A11604B600B600B1A30
:10285000436001604068906050604FF000405061FC
:1028600070470000C40F00209C000020074E4FF06E
:102870008054074DFFF736FF30680128FAD92C60E5
:10288000BFF34F8FBFF36F8FF4E7000030030020DA
:1028900004ED00E070B51D46049C002909D02260BB
:1028A000E06321640121204600F0B8FE84F84C501A
:1028B00070BD2460F4E72DE9F05F82460B9F0A9D0E
:1028C0000C9C0E4690469B464FEA8801A522206B41
:1028D000FDF70BFD206BA8F1010100EB810020F05A
:1028E00007094FF0000866B100202218315C82F819
:1028F0003410315C11B1401C1028F6D384F84380A9
:1029000001E084F83480382D00D33725E562E56492
:10291000C4F85080201D00F0DCFB04F1180000F02A
:10292000D8FB2461C5F13800A0616462C4F854800A
:1029300084F858805A465146484600F0C5FA20604F
:10294000002F00D03C60BDE8F09F000070B500246F
:102950000F4D04EB840005EB800000F0AFFB641C1E
:10296000382CF6D30B4800F0A9FB0B4800F0A6FB6F
:102970000A4800F0A3FB0A4800F0A0FB094800F059
:102980009DFB0948034941631431816370BD000018
:102990003003002090070020A4070020B807002083
:1029A000CC070020E00700203000002010B41449BC
:1029B00000E011460A688242FBD34B6803EB010C2E
:1029C000844503D140681844486008460C68D0F834
:1029D00004C00CEB0003A3420CD10A4B1B689A42C3
:1029E00006D05268624442600A681268026002E0DF
:1029F000036000E00260814200D0086010BC7047B4
:102A00009C0000208400002010B50024416000617B
:102A1000DFF838C091420BD8D11A8269914201D3B4
:102A2000012410E0011DDCF8100000F055FB0AE065
:102A30009A4203D2994201D3012404E0011DDCF83B
:102A40000C0000F049FB204610BD00006C00002087
:102A500010B5044600F068FBA06B20B1002400F024
:102A600083FB204610BD0124F9E710B5044600F0B1
:102A70005BFBA06BE16B884201D1012400E00024E4
:102A800000F072FB204610BDF8B505460E4617480B
:102A9000C068C068C468201D00F0E6FA94F82800F9
:102AA00010F0040F18D0A0692B4641193246204679
:102AB000FFF7AAFFA0B100200346014600902A4676
:102AC000204601F0E5F958B9502080F31188BFF392
:102AD0004F8FBFF36F8FFEE720F0010084F82800CE
:102AE000216A01B02046BDE8F04008476C00002094
:102AF00030B587B0414D002202A9286800F0EEFEF3
:102B0000002875D00298002803DA039A05990498E2
:102B100090470298002864DB049C606910B1201D76
:102B200000F0A2FA01A800F0B3F8024602980A28C1
:102B300057D2DFE800F00505052F364D05052F3685
:102B400094F8280040F0010084F828000398A16957
:102B5000034601442046FFF757FF002841D0216A71
:102B60002046884794F8280010F0040F39D0002040
:102B700000900398A169002342181946204601F0ED
:102B800087F970BB502080F31188BFF34F8FBFF3DC
:102B90006F8FFEE794F8280020F0010084F82800E9
:102BA0001FE094F8280040F0010084F82800039802
:102BB000A06128B1811813462046FFF725FF10E0D9
:102BC000502080F31188BFF34F8FBFF36F8FFEE764
:102BD00094F8280010F0020F0CD020F0010084F8C7
:102BE0002800002202A9286800F078FE002889D178
:102BF00007B030BD204600F0CDFAF2E76C000020AF
:102C0000F8B505460C4600F023FC684600F040F895
:102C10000646009810B101F0A1F8F8BD44B9B542DC
:102C200006D801F09BF831462846FFF72DFFF8BD86
:102C30000C481CB10169096891B10024A91B224606
:102C4000006800F029FB01F089F80028EFD106495F
:102C50004FF080500860BFF34F8FBFF36F8FF8BD08
:102C60000124EBE76C00002004ED00E00749486B0D
:102C70000068002805D0486BC068C068406888625A
:102C800070474FF0FF30886270470000300000202E
:102C900070B5044600F07AFF0546074EB0688542DD
:102CA00004D200F00BF80120206001E00020206039
:102CB000B560284670BD00006C000020F8B51C4EC1
:102CC000F0680068002826D00027F068C068056812
:102CD000C468201D00F0C8F9216A2046884794F88E
:102CE000280010F0040F12D0A0692844A84206D989
:102CF00060602461211DF06800F0EEF907E0002318
:102D00002A4619462046009701F0C2F840B1F06803
:102D100000680028D9D1F0683169F1603061F8BDF0
:102D2000502080F31188BFF34F8FBFF36F8FFEE702
:102D30006C0000200A484068B0F1FF3F07D05020E7
:102D400080F31188BFF34F8FBFF36F8FFEE75020E2
:102D500080F31188BFF34F8FBFF36F8FFEE7000042
:102D6000A400002082B001A8FFF746FD0199FFF7FB
:102D700047FFFFF7BDFEF6E770B5044600F0D4F953
:102D800094F94550002D0CDD606A50B104F1240027
:102D900000F0A8FF08B100F0D5FA681E45B2002D7A
:102DA000F2DC4FF0FF3684F8456000F0DDF900F00A
:102DB000BBF994F94450002D0CDD206950B104F1A9
:102DC000100000F08FFF08B100F0BCFA681E45B299
:102DD000002DF2DC84F84460BDE8704000F0C4B916
:102DE0002DE9F0410546002600F032FB344F3868EB
:102DF00008B9FFF713FD7869054251D19DB1083537
:102E000015F0070F0FD005F00700C0F108000544CA
:102E100015F0070F07D0502080F31188BFF34F8FB4
:102E2000BFF36F8FFEE7002D3AD07868854237D820
:102E300024490846046801E0214604466068A84227
:102E400002D220680028F7D13868844228D0086868
:102E500000F10806206808606068411B10290FD93E
:102E6000601910F0070F07D0502080F31188BFF3CE
:102E70004F8FBFF36F8FFEE741606560FFF796FDF0
:102E800061687868401A7860BA68904200D2B86089
:102E900078690843606000202060F868401CF86092
:102EA00000F05CFF16F0070F07D0502080F3118868
:102EB000BFF34F8FBFF36F8FFEE73046BDE8F08161
:102EC000840000209C000020001F4FF080730360EE
:102ED000001F21F001010160001F03490160143847
:102EE0000260203870470000352D00080648002198
:102EF0004160816005490968496A01800349483198
:102F00000968496A4180704700000020B000002035
:102F100010B50F4C00224FF480512046FDF7ECFC19
:102F2000002261142046FDF7E7FC00224FF48041A7
:102F30002046FDF7E1FC00224FF400412046FDF75A
:102F4000DBFC044900200A6850630968886310BDEF
:102F5000000C0140400100202DE9F0471C4C0028E6
:102F60000846D4E901652CD000F05AF8194F4FF407
:102F7000966907F148083868416AD8F80000406A45
:102F80002288D4F804C08A1A13B262886344821A71
:102F900063605242D4F808C012B26244A260218039
:102FA0006080991B00D54942501B00D5404208441F
:102FB00000EBD0704010484506DBBDE8F047FFF756
:102FC000A7BF00F009F8D1E70120FFF74BFAD2E7DD
:102FD00000000020B000002070B50F4E0C460546E2
:102FE000012211033046FDF787FC002271143046A0
:102FF000FDF782FC00224FF480413046FDF77CFC57
:103000000122D1033046FDF777FC044801684D6387
:103010000068846370BD0000000C01404001002086
:1030200070B50F4E0C46054600224FF480513046D5
:10303000FDF762FC012251033046FDF75DFC0122E1
:1030400091033046FDF758FC00224FF40041304612
:10305000FDF752FC034801684D630068846370BD4E
:10306000000C0140400100200169436882689A60B9
:10307000836842685A604A68824201D182684A6025
:10308000002202610868401E08600868704700005E
:10309000034B036003F15C00086080201060704700
:1030A0000C090020044B036003F15C0008604FF43E
:1030B0008070106070470000680B002000F108016C
:1030C00041604FF0FF328260C16001610021016008
:1030D000704700210161704710B4D1F800C0BCF105
:1030E000FF3F02D000F1080202E0026904E01A4644
:1030F00053681C686445FAD953684B6099608A60CC
:10310000516008610168491C016010BC7047426849
:103110004A6093688B6093685960916008610168A8
:10312000491C016070470000502080F31188BFF3F4
:103130004F8FBFF36F8F0A494868401C48600128D1
:103140000CD10848006810F0FF0F07D0502080F322
:103150001188BFF34F8FBFF36F8FFEE770470000FA
:10316000A400002004ED00E009494868002806D0CA
:10317000401E4860002801D180F31188704750201C
:1031800080F31188BFF34F8FBFF36F8FFEE700000E
:10319000A400002070B500282AD0A0F10804154D25
:1031A00060686969084207D1502080F31188BFF335
:1031B0004F8FBFF36F8FFEE722683AB1502080F344
:1031C0001188BFF34F8FBFF36F8FFEE788436060B6
:1031D00000F03EF960686968084468602046FFF7BF
:1031E000E5FB2869401C2861BDE8704000F0B6BDD1
:1031F00070BD0000840000204FF0E020002101613C
:10320000816105494FF47A720968B1FBF2F1491EF8
:1032100041610721016170472C00002010B5FCF7C7
:10322000FBFF114910280ED300F1E02090F8F003C5
:103230000A78904207D2502080F31188BFF34F8F55
:10324000BFF36F8FFEE709480068896800F4E0600B
:10325000884207D9502080F31188BFF34F8FBFF306
:103260006F8FFEE710BD0000A40000200CED00E011
:103270000022084B53F832C0BCF1000F03D0521C9F
:10328000082AF7D3704743F8321003EBC2014860B5
:1032900070470000F002002070B504460D46164647
:1032A000FFF742FF94F94400B0F1FF3F4FF00000F8
:1032B00001D184F8440094F94510B1F1FF3F01D1E8
:1032C00084F84500FFF750FFA06B28B93246294625
:1032D00004F1240000F056F82046BDE87040FFF7E6
:1032E0004BBD000010B502460020002A12D00F4846
:1032F000006B38B1502080F31188BFF34F8FBFF3BC
:103300006F8FFEE700F0A4F800211046FFF748F9A0
:1033100000F024FD002807D105494FF080500860D7
:10332000BFF34F8FBFF36F8F10BD00003000002040
:1033300004ED00E002490A6A0260C9684160704712
:103340003000002001490120C86170473000002092
:1033500010B50C4600280BD0094A126802F118017A
:10336000FFF7BAFE2046BDE810400121FFF718B96B
:10337000502080F31188BFF34F8FBFF36F8FFEE7AC
:103380003000002070B50D46144600280DD00B49C2
:1033900009681831FFF7BBFE0CB14FF0FF3521462D
:1033A0002846BDE87040FFF7FBB8502080F3118835
:1033B000BFF34F8FBFF36F8FFEE700003000002098
:1033C00030B587B000250695059504AA05A906A87D
:1033D000FFF75EFE06980599019102900023009583
:1033E00017A11948049A00F093FB184CE06208B149
:1033F000012000E00020012801D100F015FD012886
:103400000AD0B0F1FF3F19D1502080F31188BFF3EB
:103410004F8FBFF36F8FFEE7502080F31188BFF30B
:103420004F8FBFF36F8F4FF0FF30A06201206061BC
:10343000E56007B0BDE8304000F048B807B030BDE7
:1034400049444C45000000006D2800083000002071
:103450000248016B491C01637047000030000020E6
:10346000184B186B002802D00120D861704700204B
:10347000D8611869144900EB800251F822203AB94A
:10348000C0B1401E00EB800251F82220002AF7D084
:1034900000EB800201EB82014A6852684A6001F148
:1034A000080C624501D152684A604968C9681960D0
:1034B00018617047502080F31188BFF34F8FBFF31E
:1034C0006F8FFEE7300000203003002010B582B07F
:1034D000284908780190FF200870087800909DF82E
:1034E00000009DF8002000F0F000904207D050202E
:1034F00080F31188BFF34F8FBFF36F8FFEE79DF806
:1035000000001D4C00F0500020700720A0609DF8C6
:10351000000010F0800F0BD0A068401EA0609DF846
:103520000000400000909DF8000010F0800FF3D1E3
:10353000A068032807D0502080F31188BFF34F8F75
:10354000BFF36F8FFEE74FF44070A06001980870E2
:103550000A48016841F470010160016841F070415E
:103560000160FFF749FE00206060FCF71FFE02B01B
:10357000002010BD00E400E0A400002020ED00E0E9
:1035800010B5502080F31188BFF34F8FBFF36F8FBA
:1035900000F002FB18B104494FF080500860002091
:1035A00080F3118810BD000004ED00E038B5049DE3
:1035B000002804D05BB102B189B1C2B120E0502033
:1035C00080F31188BFF34F8FBFF36F8FFEE750205A
:1035D00080F31188BFF34F8FBFF36F8FFEE750204A
:1035E00080F31188BFF34F8FBFF36F8FFEE739B1C0
:1035F000502080F31188BFF34F8FBFF36F8FFEE72A
:103600004FF0500CCDF800C01C46012384F8463022
:103610002B460094FFF73EF9204638BD70B50446AE
:103620000D46002C25D0FFF77FFD226CE16B206852
:1036300001FB0200A0600020A06320686060E16BD5
:10364000226C2068491E01FB0200E0604FF0FF3051
:1036500084F8440084F845009DB104F11000FFF7A0
:103660002DFD04F12400FFF729FDFFF77DFD01206A
:1036700070BD502080F31188BFF34F8FBFF36F8F61
:10368000FEE720690028F0D004F1100000F02AFBCA
:103690000028EAD004494FF080500860BFF34F8FF4
:1036A000BFF36F8FE1E7000004ED00E02DE9FF4775
:1036B00082B004468A461F460025002C03D0BAF18A
:1036C000000F08D011E0502080F31188BFF34F8F16
:1036D000BFF36F8FFEE7206C38B1502080F3118864
:1036E000BFF34F8FBFF36F8FFEE7022F0AD1E06B5E
:1036F000012807D0502080F31188BFF34F8FBFF30C
:103700006F8FFEE700F034FA48B9049838B15020C2
:1037100080F31188BFF34F8FBFF36F8FFEE7002652
:103720004FF08058DFF8F090FFF7FEFCA06BE16BE4
:10373000884205D3022F03D0049808B335B329E09B
:103740003A4651462046FEF7FFFF616A59B104F13F
:10375000240000F0C7FA68B1C9F80080BFF34F8FAA
:10376000BFF36F8F06E028B1C9F80080BFF34F8F19
:10377000BFF36F8FFFF7F8FC06B00120BDE8F087BC
:10378000FFF7F2FC06B00020BDE8F0876846FFF7BF
:10379000D1FD0125FFF7E8FCFFF75AFEFFF7C4FC57
:1037A00094F94400B0F1FF3F01D184F8446094F9EA
:1037B0004500B0F1FF3F01D184F84560FFF7D4FC2C
:1037C00004A9684600F02EF940B12046FFF7D4FA6C
:1037D00000F0C4FA06B00020BDE8F0872046FFF7ED
:1037E00044F990B104F110000499FFF7B1FD2046AF
:1037F000FFF7C2FA00F0B2FA002895D1C9F80080AC
:10380000BFF34F8FBFF36F8F8EE72046FFF7B4FAF9
:1038100000F0A4FA88E7000004ED00E02DE9F0478D
:103820000446894617461E46002C03D0B9F1000F06
:1038300008D011E0502080F31188BFF34F8FBFF301
:103840006F8FFEE7206C38B1502080F31188BFF3F2
:103850004F8FBFF36F8FFEE7022E0AD1E06B012876
:1038600007D0502080F31188BFF34F8FBFF36F8FC5
:10387000FEE7FFF7D3FC5020EFF3118880F31188A7
:10388000BFF34F8FBFF36F8FA06BE16B884206D3FE
:10389000022E04D0002088F31188BDE8F08794F947
:1038A0004550A06B324649462046FEF74DFFB5F124
:1038B000FF3F04D0681C84F845000120EBE7606AF4
:1038C0000028FAD004F1240000F00CFA0028F4D00B
:1038D000002FF2D001203860EFE700002DE9F74714
:1038E00083B004468A460025002C03D0BAF1000FAD
:1038F00008D011E0502080F31188BFF34F8FBFF341
:103900006F8FFEE7206C38B1502080F31188BFF331
:103910004F8FBFF36F8FFEE700F02AF948B9059883
:1039200038B1502080F31188BFF34F8FBFF36F8FF2
:10393000FEE700274FF08058DFF8E490FFF7F4FB34
:10394000A66BC6B151462046FEF7ECFE701EA06382
:10395000206950B104F1100000F0C4F928B1C9F891
:103960000080BFF34F8FBFF36F8FFFF7FDFB06B0F3
:103970000120BDE8F087059808B135B109E0FFF7EF
:10398000F3FB06B00020BDE8F0876846FFF7D2FCE5
:103990000125FFF7E9FBFFF75BFDFFF7C5FB94F996
:1039A0004400B0F1FF3F01D184F8447094F9450020
:1039B000B0F1FF3F01D184F84570FFF7D5FB05A9B1
:1039C000684600F02FF868B12046FFF7D5F900F0FF
:1039D000C5F92046FFF73CF80028AFD006B000201C
:1039E000BDE8F0872046FFF733F890B104F12400DA
:1039F0000599FFF7ADFC2046FFF7BEF900F0AEF9E0
:103A000000289BD1C9F80080BFF34F8FBFF36F8FA1
:103A100094E72046FFF7B0F900F0A0F98EE7000028
:103A200004ED00E070B505460C46002D15D0E4B15C
:103A3000FFF77AFBDFF868C0DCF80C006B68C11A8E
:103A40002268B2F1FF3F18D02E68DCF820C066452E
:103A500015D0834213D801241DE0502080F3118833
:103A6000BFF34F8FBFF36F8FFEE7502080F31188B5
:103A7000BFF34F8FBFF36F8FFEE700240BE08A4246
:103A800006D9501A20602846FFF754FC002402E0B3
:103A9000002020600124FFF767FB204670BD000076
:103AA000300000202DE9F04F85B081460F9F0E9E1B
:103AB0008A4690469B464FEA8800FFF791F90546F3
:103AC00028000AD05C20FFF78BF904460CB125636F
:103AD00004E02846FFF75EFB00E000249CB10020D4
:103AE00084F8590003905B46424651460197009680
:103AF00002944846FEF7DFFE2046FEF781FD05B042
:103B00000120BDE8F08F05B04FF0FF30BDE8F08F29
:103B100070B586B00646DDF828C00C9C0B980028CE
:103B200016D0ECB15C2504952063022084F859007E
:103B3000002005AD0390CDF800C0019502943046F9
:103B4000FEF7B9FE2046FEF75BFD059806B070BD96
:103B5000502080F31188BFF34F8FBFF36F8FFEE7C4
:103B6000502080F31188BFF34F8FBFF36F8FFEE7B4
:103B700005484169002903D0006B18B10020704747
:103B80000120704702207047300000200148C068C3
:103B900070470000300000202DE9F04100262F4F33
:103BA000386B002805D0B869401CB8613046BDE8C4
:103BB000F081F868451CFD609DB9786B006838B1EC
:103BC000502080F31188BFF34F8FBFF36F8FFEE754
:103BD000786BB96B7963B863386A401C3862FFF759
:103BE00045F8B86ADFF8788085420DD3786B0068B5
:103BF00038B1786BC068C4686068854212D2B86218
:103C000002E04FF0FF30B8623868C06A00EB800015
:103C100058F82000012800D90126F8690028C5D0ED
:103C20000126C3E7201DFFF71FFAA06A18B104F1AF
:103C30001800FFF719FAE16A3869814200D9396141
:103C400001EB810008EB8000211DFFF760FAE06ABC
:103C50003968C96A8842C9D30126C7E73000002005
:103C60003003002070B504460021002833D01B4DDE
:103C70002868844207D0502080F31188BFF34F8F0B
:103C8000BFF36F8FFEE7206D38B1401E2065E36CF7
:103C9000E26A9A421FD040B11DE0502080F31188A3
:103CA000BFF34F8FBFF36F8FFEE7201DFFF7DCF9E7
:103CB000E06CE062C0F13800A061E06A29698842E6
:103CC00000D92861064900EB800001EB8000211D2E
:103CD000FFF71DFA0121084670BD000030000020EA
:103CE0003003002070B5C068C468002C14D004F103
:103CF0001800FFF7B9F9164D286BA8B104F11801A7
:103D00001448FFF704FAE06A2968C96A88421CD996
:103D100001200121E96170BD502080F31188BFF3BB
:103D20004F8FBFF36F8FFEE7201DFFF79DF9E06A0D
:103D30002969884200D92861074900EB800001EB1E
:103D40008000211DFFF7E3F9DDE7002070BD0000D2
:103D500030000020B8070020300300202DE9F04794
:103D6000002400272D4D286B002807D0FFF7DCF931
:103D7000286B401E2863286B40B149E0502080F337
:103D80001188BFF34F8FBFF36F8FFEE7A86800283D
:103D90003ED0234E30684FF0010800B3A6F591697C
:103DA000F068C46804F11800FFF75EF9201DFFF702
:103DB0005BF9E06A2969884200D9286100EB80003C
:103DC00009EB8000211DFFF7A2F9E06A2968C96AA2
:103DD000884201D3C5F81C8030680028E0D10CB1BE
:103DE000FEF744FFAC694CB1FFF7D6FE08B1C5F849
:103DF0001C80641E002CF7D10020A861E86938B14E
:103E00000127084938070860BFF34F8FBFF36F8F52
:103E1000FFF7AAF93846BDE8F0870000300000201F
:103E2000B807002004ED00E030B587B00024FEF7AD
:103E30002BFC134D2868B0B100200690059004AA11
:103E400005A906A8FFF72EF9059906980222009207
:103E50000191029000230BA10C48049AFFF758FE31
:103E6000686000B1012414B107B0204630BD502075
:103E700080F31188BFF34F8FBFF36F8FFEE7000011
:103E80006C000020546D722053766300652D00088D
:103E9000F0B585B084460A9D16461F460022BCF147
:103EA000000F14D0164C206800B300910196CDF895
:103EB00008C006291BDAFFF75BFE02280FD000239B
:103EC0001A4669462068FFF7F1FB024615E05020CC
:103ED00080F31188BFF34F8FBFF36F8FFEE700238E
:103EE0002A4669462068FFF7E1FB024605E0002309
:103EF0003A466946FFF792FC024605B01046F0BD0F
:103F00006C00002090EA010F48BF81F0004100F1F1
:103F1000E481421A3CBF801A89184FEAD0524FF010
:103F20007F4C1CEA410FA2EBD15318BF9CEA026FF1
:103F300000F03B804FF0004C4CEA00204CEA01219D
:103F400021FA03FC10EB0C0C1ED202F1FF325FEAE7
:103F50001C2040EBC25038BF70471CF07F0F4FEA67
:103F6000400C18BFBCF17F4F38BF7047C3F120032E
:103F7000994008BF20F00100BCF17F4F38BF704767
:103F8000A0F1C04000F061B94FEA3C00000A40EBEC
:103F9000C25028BF1CF0FF0F4FEA400CE6D018BFFC
:103FA000BCF17F4F38BF7047EAE79CEA026F05D04B
:103FB00010EA5C0F08BF00F00040704710B500F039
:103FC000FEF800BF64FBBE3E014800F0F4B900BF3C
:103FD0000000C07F401058BFC0F14040491058BF9A
:103FE000C1F140418142EFF30080704741000B0E68
:103FF000D3F19E0208D950F400034FEA032323FAB9
:1040000002F048BF4042704710B500F0D8F800BF3A
:1040100049922480002070476FF0004282EA20001D
:104020007047000010F0004148BF4042B0FA80F3F2
:1040300010FA03F2C3F19D030BD051EAC35101EB17
:104040001220530638BF704700F1010008BF20F06E
:104050000100704750EA010C00F113801CF5000FBD
:1040600058BFBCF5000F01D48842704707D710F540
:10407000000F58BF11F5000F15D4884270478942D0
:1040800070471CF5000F04D5BCF5000FF7D5814231
:1040900070474FF0807C1CEB400F38BF1CEB410F8A
:1040A00001D28142704710B500F089F8922449008E
:1040B0004FF000504FF08051FFF78CBF4FF47F0C52
:1040C0001CEAD0121EBF1CEAD11392EA0C0F93EA2D
:1040D0000C0F00F0478090EA010F48BF42F4807255
:1040E0004FF0004C4CEA00204CEA012102EB0302A5
:1040F000A0FB0113A2F50002002918BF43F0010341
:104100005B0028BF4FEA330342EB22425FEA132CE5
:104110004CEBC2502EBFBCEB436FB2F57C0F704727
:104120004FEA036CBCF1004F08BF20F00100B2F56C
:104130007C0F38BF70470BD582F0FF0212F5803F2D
:10414000C8BF704700F1C040D8BF00F000407047C2
:1041500000F5000C5FEA4C0C48BF7047B0F1C0405E
:1041600000F073B890EA010F0CEAD11348BF42F493
:104170008072624538BF634504D280EA010000F0D6
:104180000040704710B500F01AF800BF8900013EEA
:1041900000F007B800F009B85FEA410C5FEA1C6C58
:1041A00008D080EA010000F050B85FEA400C5FEAF6
:1041B0001C6CF6D14FF00040A0F5800070470EF166
:1041C000020E2EF0030E5EF8044B244204D44FEA94
:1041D0004102B2F17F4F11D84FEA4003B3F17F4F54
:1041E0000CD80ED14FEAD07CB2F17F4F0CEB4C0CC7
:1041F0000CF1020C08BF4CEBD17C04E04FF0080C32
:1042000001E04FEAD17C0CEB4C0324FA03F404F0F8
:104210000704B4F1040C06D20EEB840CBDE8104088
:104220004CF0010C6047DFE80CF0070802024FF089
:104230000040A0F5800010BD0846420018BFD2F132
:10424000807288BF00F0004010BDFF2141EAD050CD
:10425000C005704751EA000C00F113801CF5000FF7
:1042600058BFBCF5000F01D48142704707D711F544
:10427000000F58BF10F5000F15D4814270478942D6
:1042800070471CF5000F04D5BCF5000FF7D5884228
:1042900070474FF0807C1CEB410F38BF1CEB400F88
:1042A00001D28842704780EA010081EA000180EA79
:1042B0000100FFF7F8BE80F0004090EA010F7FF5A3
:1042C00028AE81F0004100F008B8000090EA010F2C
:1042D00048BF81F000413FF51CAE421A04D882F07D
:1042E0000042A0EB020011444FEAD0524FF07F4C45
:1042F0001CEA410FA2EBD15318BF9CEA026F4AD0CF
:104300004FF0004C4CEA00204CEA012121FA03FC5A
:10431000B0EB0C0C0FD412F0FE0F36D05FEA4C005D
:104320001DD5001240EBC25038BF70471CF03F0F44
:1043300018BF70470BE0A2F101025FEA1C2040EBBE
:10434000C25038BF70471CF07F0F18BF7047C3F1D1
:104350002003994014BF401E20F0010070478008E0
:104360004FEA122308BF7047B0FA80FCA2EB0C02A0
:10437000CCF1280C60FA0CF093EA122F04BF00EB8A
:10438000C25070474FEAC3707047130A5FEADC10EF
:1043900008BF7047F6E79CEA026F04D010EA5C0F92
:1043A00008BF0020704710B5FFF709FF40DFF63E59
:1043B00081F0004070470CF00F03092B08BF082064
:1043C00000F051800A2B0BD0082B18BF704708BF94
:1043D0001CF0400F0AD04FF000004FF00001704772
:1043E0001CF0400F18BF4FF0004070471CF0100F3A
:1043F00008D020F0704300F07F4242EAD3014FEA38
:104400004370704700F0604021F07F4242EA0002B2
:1044100001F07F4040EA727070474FF0FF0212EAED
:10442000D0521CBF92F0FF038B42C2BFD14200EBBF
:10443000C1507047002A0AD0002B0BD0002900F091
:104440000040A4BF40F0FE4040F40000704700F080
:104450000040704743024FF00B0C18BF4CF0806CCB
:104460007FF4B2AD70471CF4801F11D01CF4E02F14
:1044700003D06FEACC31490070474FF04050EFF362
:10448000008222F0704242EA000282F30088704704
:104490004FF00000704700001845000800000000C1
:1044A000000000000000000000000000000200000A
:1044B0001800000000000000000000000C4500088B
:1044C00000000000000000000000000000000000EC
:1044D00000080000300000000000000000000000A4
:1044E000010202030405060708090A0B0C0D0E0F52
:1044F0001010000000000000000001020304060785
:104500000809000000000102030400004368617311
:104510007369735461736B0064656661756C745480
:1045200061736B004445000800000020B0000000EB
:1045300028010008F4450008B000002078210000A0
:10454000440100080000000000000000000000001E
:10455000000000000000000000000040000000001B
:10456000CDCCCC3D01000000100000000000000098
:1045700000127A00000000000000000000000000AF
:10458000000000000000000000000000000000002B
:10459000000000000000000000000000000000001B
:1045A000000000000000000000000000000000000B
:1045B00000000000000000000000000000000000FB
:1045C00000000000000000000000000000000000EB
:1045D00000000000000000000000000000000000DB
:1045E000000000000000000000000000AAAAAAAA23
:0445F00000000000C7
:04000005080000ED02
:00000001FF
